{
  "contractName": "MyContract",
  "abi": [
    {
      "inputs": [
        {
          "internalType": "string",
          "name": "_message",
          "type": "string"
        }
      ],
      "stateMutability": "nonpayable",
      "type": "constructor"
    },
    {
      "anonymous": false,
      "inputs": [
        {
          "indexed": true,
          "internalType": "address",
          "name": "device",
          "type": "address"
        },
        {
          "indexed": false,
          "internalType": "string",
          "name": "threat_type",
          "type": "string"
        },
        {
          "indexed": false,
          "internalType": "string",
          "name": "timestamp",
          "type": "string"
        }
      ],
      "name": "ThreatRecorded",
      "type": "event"
    },
    {
      "inputs": [
        {
          "internalType": "uint256",
          "name": "",
          "type": "uint256"
        }
      ],
      "name": "allDevices",
      "outputs": [
        {
          "internalType": "address",
          "name": "",
          "type": "address"
        }
      ],
      "stateMutability": "view",
      "type": "function",
      "constant": true
    },
    {
      "inputs": [],
      "name": "message",
      "outputs": [
        {
          "internalType": "string",
          "name": "",
          "type": "string"
        }
      ],
      "stateMutability": "view",
      "type": "function",
      "constant": true
    },
    {
      "inputs": [
        {
          "internalType": "address",
          "name": "",
          "type": "address"
        },
        {
          "internalType": "uint256",
          "name": "",
          "type": "uint256"
        }
      ],
      "name": "threats",
      "outputs": [
        {
          "components": [
            {
              "internalType": "string",
              "name": "device_id",
              "type": "string"
            },
            {
              "internalType": "string",
              "name": "threat_type",
              "type": "string"
            },
            {
              "internalType": "string",
              "name": "timestamp",
              "type": "string"
            },
            {
              "internalType": "uint256",
              "name": "duration",
              "type": "uint256"
            },
            {
              "internalType": "uint256",
              "name": "orig_bytes",
              "type": "uint256"
            },
            {
              "internalType": "uint256",
              "name": "resp_bytes",
              "type": "uint256"
            },
            {
              "internalType": "uint256",
              "name": "missed_bytes",
              "type": "uint256"
            },
            {
              "internalType": "uint256",
              "name": "orig_h_encoded",
              "type": "uint256"
            },
            {
              "internalType": "uint256",
              "name": "orig_pkts",
              "type": "uint256"
            },
            {
              "internalType": "uint256",
              "name": "orig_ip_bytes",
              "type": "uint256"
            },
            {
              "internalType": "uint256",
              "name": "resp_pkts",
              "type": "uint256"
            },
            {
              "internalType": "uint256",
              "name": "resp_ip_bytes",
              "type": "uint256"
            },
            {
              "internalType": "uint8",
              "name": "proto_icmp",
              "type": "uint8"
            },
            {
              "internalType": "uint8",
              "name": "proto_tcp",
              "type": "uint8"
            },
            {
              "internalType": "uint8",
              "name": "proto_udp",
              "type": "uint8"
            }
          ],
          "internalType": "struct MyContract.ThreatData",
          "name": "data",
          "type": "tuple"
        },
        {
          "components": [
            {
              "internalType": "uint8",
              "name": "OTH",
              "type": "uint8"
            },
            {
              "internalType": "uint8",
              "name": "REJ",
              "type": "uint8"
            },
            {
              "internalType": "uint8",
              "name": "RSTO",
              "type": "uint8"
            },
            {
              "internalType": "uint8",
              "name": "RSTOS0",
              "type": "uint8"
            },
            {
              "internalType": "uint8",
              "name": "RSTR",
              "type": "uint8"
            },
            {
              "internalType": "uint8",
              "name": "RSTRH",
              "type": "uint8"
            },
            {
              "internalType": "uint8",
              "name": "S0",
              "type": "uint8"
            },
            {
              "internalType": "uint8",
              "name": "S1",
              "type": "uint8"
            },
            {
              "internalType": "uint8",
              "name": "S2",
              "type": "uint8"
            },
            {
              "internalType": "uint8",
              "name": "S3",
              "type": "uint8"
            },
            {
              "internalType": "uint8",
              "name": "SF",
              "type": "uint8"
            },
            {
              "internalType": "uint8",
              "name": "SH",
              "type": "uint8"
            },
            {
              "internalType": "uint8",
              "name": "SHR",
              "type": "uint8"
            }
          ],
          "internalType": "struct MyContract.ConnState",
          "name": "conn_state",
          "type": "tuple"
        }
      ],
      "stateMutability": "view",
      "type": "function",
      "constant": true
    },
    {
      "inputs": [
        {
          "internalType": "string",
          "name": "_message",
          "type": "string"
        }
      ],
      "name": "setMessage",
      "outputs": [],
      "stateMutability": "nonpayable",
      "type": "function"
    },
    {
      "inputs": [
        {
          "components": [
            {
              "internalType": "string",
              "name": "device_id",
              "type": "string"
            },
            {
              "internalType": "string",
              "name": "threat_type",
              "type": "string"
            },
            {
              "internalType": "string",
              "name": "timestamp",
              "type": "string"
            },
            {
              "internalType": "uint256",
              "name": "duration",
              "type": "uint256"
            },
            {
              "internalType": "uint256",
              "name": "orig_bytes",
              "type": "uint256"
            },
            {
              "internalType": "uint256",
              "name": "resp_bytes",
              "type": "uint256"
            },
            {
              "internalType": "uint256",
              "name": "missed_bytes",
              "type": "uint256"
            },
            {
              "internalType": "uint256",
              "name": "orig_h_encoded",
              "type": "uint256"
            },
            {
              "internalType": "uint256",
              "name": "orig_pkts",
              "type": "uint256"
            },
            {
              "internalType": "uint256",
              "name": "orig_ip_bytes",
              "type": "uint256"
            },
            {
              "internalType": "uint256",
              "name": "resp_pkts",
              "type": "uint256"
            },
            {
              "internalType": "uint256",
              "name": "resp_ip_bytes",
              "type": "uint256"
            },
            {
              "internalType": "uint8",
              "name": "proto_icmp",
              "type": "uint8"
            },
            {
              "internalType": "uint8",
              "name": "proto_tcp",
              "type": "uint8"
            },
            {
              "internalType": "uint8",
              "name": "proto_udp",
              "type": "uint8"
            }
          ],
          "internalType": "struct MyContract.ThreatData",
          "name": "_data",
          "type": "tuple"
        },
        {
          "components": [
            {
              "internalType": "uint8",
              "name": "OTH",
              "type": "uint8"
            },
            {
              "internalType": "uint8",
              "name": "REJ",
              "type": "uint8"
            },
            {
              "internalType": "uint8",
              "name": "RSTO",
              "type": "uint8"
            },
            {
              "internalType": "uint8",
              "name": "RSTOS0",
              "type": "uint8"
            },
            {
              "internalType": "uint8",
              "name": "RSTR",
              "type": "uint8"
            },
            {
              "internalType": "uint8",
              "name": "RSTRH",
              "type": "uint8"
            },
            {
              "internalType": "uint8",
              "name": "S0",
              "type": "uint8"
            },
            {
              "internalType": "uint8",
              "name": "S1",
              "type": "uint8"
            },
            {
              "internalType": "uint8",
              "name": "S2",
              "type": "uint8"
            },
            {
              "internalType": "uint8",
              "name": "S3",
              "type": "uint8"
            },
            {
              "internalType": "uint8",
              "name": "SF",
              "type": "uint8"
            },
            {
              "internalType": "uint8",
              "name": "SH",
              "type": "uint8"
            },
            {
              "internalType": "uint8",
              "name": "SHR",
              "type": "uint8"
            }
          ],
          "internalType": "struct MyContract.ConnState",
          "name": "_conn_state",
          "type": "tuple"
        }
      ],
      "name": "recordThreat",
      "outputs": [],
      "stateMutability": "nonpayable",
      "type": "function"
    },
    {
      "inputs": [],
      "name": "getAllThreats",
      "outputs": [
        {
          "components": [
            {
              "components": [
                {
                  "internalType": "string",
                  "name": "device_id",
                  "type": "string"
                },
                {
                  "internalType": "string",
                  "name": "threat_type",
                  "type": "string"
                },
                {
                  "internalType": "string",
                  "name": "timestamp",
                  "type": "string"
                },
                {
                  "internalType": "uint256",
                  "name": "duration",
                  "type": "uint256"
                },
                {
                  "internalType": "uint256",
                  "name": "orig_bytes",
                  "type": "uint256"
                },
                {
                  "internalType": "uint256",
                  "name": "resp_bytes",
                  "type": "uint256"
                },
                {
                  "internalType": "uint256",
                  "name": "missed_bytes",
                  "type": "uint256"
                },
                {
                  "internalType": "uint256",
                  "name": "orig_h_encoded",
                  "type": "uint256"
                },
                {
                  "internalType": "uint256",
                  "name": "orig_pkts",
                  "type": "uint256"
                },
                {
                  "internalType": "uint256",
                  "name": "orig_ip_bytes",
                  "type": "uint256"
                },
                {
                  "internalType": "uint256",
                  "name": "resp_pkts",
                  "type": "uint256"
                },
                {
                  "internalType": "uint256",
                  "name": "resp_ip_bytes",
                  "type": "uint256"
                },
                {
                  "internalType": "uint8",
                  "name": "proto_icmp",
                  "type": "uint8"
                },
                {
                  "internalType": "uint8",
                  "name": "proto_tcp",
                  "type": "uint8"
                },
                {
                  "internalType": "uint8",
                  "name": "proto_udp",
                  "type": "uint8"
                }
              ],
              "internalType": "struct MyContract.ThreatData",
              "name": "data",
              "type": "tuple"
            },
            {
              "components": [
                {
                  "internalType": "uint8",
                  "name": "OTH",
                  "type": "uint8"
                },
                {
                  "internalType": "uint8",
                  "name": "REJ",
                  "type": "uint8"
                },
                {
                  "internalType": "uint8",
                  "name": "RSTO",
                  "type": "uint8"
                },
                {
                  "internalType": "uint8",
                  "name": "RSTOS0",
                  "type": "uint8"
                },
                {
                  "internalType": "uint8",
                  "name": "RSTR",
                  "type": "uint8"
                },
                {
                  "internalType": "uint8",
                  "name": "RSTRH",
                  "type": "uint8"
                },
                {
                  "internalType": "uint8",
                  "name": "S0",
                  "type": "uint8"
                },
                {
                  "internalType": "uint8",
                  "name": "S1",
                  "type": "uint8"
                },
                {
                  "internalType": "uint8",
                  "name": "S2",
                  "type": "uint8"
                },
                {
                  "internalType": "uint8",
                  "name": "S3",
                  "type": "uint8"
                },
                {
                  "internalType": "uint8",
                  "name": "SF",
                  "type": "uint8"
                },
                {
                  "internalType": "uint8",
                  "name": "SH",
                  "type": "uint8"
                },
                {
                  "internalType": "uint8",
                  "name": "SHR",
                  "type": "uint8"
                }
              ],
              "internalType": "struct MyContract.ConnState",
              "name": "conn_state",
              "type": "tuple"
            }
          ],
          "internalType": "struct MyContract.Threat[]",
          "name": "",
          "type": "tuple[]"
        }
      ],
      "stateMutability": "view",
      "type": "function",
      "constant": true
    }
  ],
  "bytecode": "0x60806040523480156200001157600080fd5b50604051620029bf380380620029bf833981810160405281019062000037919062000179565b80600090805190602001906200004f92919062000057565b5050620002ef565b82805462000065906200025b565b90600052602060002090601f016020900481019282620000895760008555620000d5565b82601f10620000a457805160ff1916838001178555620000d5565b82800160010185558215620000d5579182015b82811115620000d4578251825591602001919060010190620000b7565b5b509050620000e49190620000e8565b5090565b5b8082111562000103576000816000905550600101620000e9565b5090565b60006200011e6200011884620001f2565b620001be565b9050828152602081018484840111156200013757600080fd5b6200014484828562000225565b509392505050565b600082601f8301126200015e57600080fd5b81516200017084826020860162000107565b91505092915050565b6000602082840312156200018c57600080fd5b600082015167ffffffffffffffff811115620001a757600080fd5b620001b5848285016200014c565b91505092915050565b6000604051905081810181811067ffffffffffffffff82111715620001e857620001e7620002c0565b5b8060405250919050565b600067ffffffffffffffff82111562000210576200020f620002c0565b5b601f19601f8301169050602081019050919050565b60005b838110156200024557808201518184015260208101905062000228565b8381111562000255576000848401525b50505050565b600060028204905060018216806200027457607f821691505b602082108114156200028b576200028a62000291565b5b50919050565b7f4e487b7100000000000000000000000000000000000000000000000000000000600052602260045260246000fd5b7f4e487b7100000000000000000000000000000000000000000000000000000000600052604160045260246000fd5b6126c080620002ff6000396000f3fe608060405234801561001057600080fd5b50600436106100625760003560e01c806330d3ef9414610067578063368b8772146100835780637bd648951461009f5780637d6ca572146100d0578063e21f37ce146100ee578063e84db8b81461010c575b600080fd5b610081600480360381019061007c9190611995565b61013c565b005b61009d60048036038101906100989190611954565b61075e565b005b6100b960048036038101906100b49190611918565b610778565b6040516100c7929190612353565b60405180910390f35b6100d8610baf565b6040516100e59190612218565b60405180910390f35b6100f66112f1565b604051610103919061223a565b60405180910390f35b610126600480360381019061012191906119ea565b61137f565b60405161013391906121fd565b60405180910390f35b600082600001515111610184576040517f08c379a000000000000000000000000000000000000000000000000000000000815260040161017b906122f3565b60405180910390fd5b6000826020015151116101cc576040517f08c379a00000000000000000000000000000000000000000000000000000000081526004016101c390612293565b60405180910390fd5b600082604001515111610214576040517f08c379a000000000000000000000000000000000000000000000000000000000815260040161020b90612333565b60405180910390fd5b600082606001511161025b576040517f08c379a0000000000000000000000000000000000000000000000000000000008152600401610252906122b3565b60405180910390fd5b6000826080015110156102a3576040517f08c379a000000000000000000000000000000000000000000000000000000000815260040161029a906122d3565b60405180910390fd5b60008260a0015110156102eb576040517f08c379a00000000000000000000000000000000000000000000000000000000081526004016102e290612313565b60405180910390fd5b6000600160003373ffffffffffffffffffffffffffffffffffffffff1673ffffffffffffffffffffffffffffffffffffffff16815260200190815260200160002080549050141561039a576002339080600181540180825580915050600190039060005260206000200160009091909190916101000a81548173ffffffffffffffffffffffffffffffffffffffff021916908373ffffffffffffffffffffffffffffffffffffffff1602179055505b60006040518060400160405280848152602001838152509050600160003373ffffffffffffffffffffffffffffffffffffffff1673ffffffffffffffffffffffffffffffffffffffff1681526020019081526020016000208190806001815401808255809150506001900390600052602060002090600e020160009091909190915060008201518160000160008201518160000190805190602001906104419291906113be565b50602082015181600101908051906020019061045e9291906113be565b50604082015181600201908051906020019061047b9291906113be565b50606082015181600301556080820151816004015560a0820151816005015560c0820151816006015560e082015181600701556101008201518160080155610120820151816009015561014082015181600a015561016082015181600b015561018082015181600c0160006101000a81548160ff021916908360ff1602179055506101a082015181600c0160016101000a81548160ff021916908360ff1602179055506101c082015181600c0160026101000a81548160ff021916908360ff1602179055505050602082015181600d0160008201518160000160006101000a81548160ff021916908360ff16021790555060208201518160000160016101000a81548160ff021916908360ff16021790555060408201518160000160026101000a81548160ff021916908360ff16021790555060608201518160000160036101000a81548160ff021916908360ff16021790555060808201518160000160046101000a81548160ff021916908360ff16021790555060a08201518160000160056101000a81548160ff021916908360ff16021790555060c08201518160000160066101000a81548160ff021916908360ff16021790555060e08201518160000160076101000a81548160ff021916908360ff1602179055506101008201518160000160086101000a81548160ff021916908360ff1602179055506101208201518160000160096101000a81548160ff021916908360ff16021790555061014082015181600001600a6101000a81548160ff021916908360ff16021790555061016082015181600001600b6101000a81548160ff021916908360ff16021790555061018082015181600001600c6101000a81548160ff021916908360ff160217905550505050503373ffffffffffffffffffffffffffffffffffffffff167f431f8c0480b4f06676e3b337c08130bffb77cec826b8cd17c96138bf2971791d8460200151856040015160405161075192919061225c565b60405180910390a2505050565b80600090805190602001906107749291906113be565b5050565b6001602052816000526040600020818154811061079457600080fd5b90600052602060002090600e02016000915091505080600001604051806101e00160405290816000820180546107c99061252c565b80601f01602080910402602001604051908101604052809291908181526020018280546107f59061252c565b80156108425780601f1061081757610100808354040283529160200191610842565b820191906000526020600020905b81548152906001019060200180831161082557829003601f168201915b5050505050815260200160018201805461085b9061252c565b80601f01602080910402602001604051908101604052809291908181526020018280546108879061252c565b80156108d45780601f106108a9576101008083540402835291602001916108d4565b820191906000526020600020905b8154815290600101906020018083116108b757829003601f168201915b505050505081526020016002820180546108ed9061252c565b80601f01602080910402602001604051908101604052809291908181526020018280546109199061252c565b80156109665780601f1061093b57610100808354040283529160200191610966565b820191906000526020600020905b81548152906001019060200180831161094957829003601f168201915b5050505050815260200160038201548152602001600482015481526020016005820154815260200160068201548152602001600782015481526020016008820154815260200160098201548152602001600a8201548152602001600b8201548152602001600c820160009054906101000a900460ff1660ff1660ff168152602001600c820160019054906101000a900460ff1660ff1660ff168152602001600c820160029054906101000a900460ff1660ff1660ff16815250509080600d01604051806101a00160405290816000820160009054906101000a900460ff1660ff1660ff1681526020016000820160019054906101000a900460ff1660ff1660ff1681526020016000820160029054906101000a900460ff1660ff1660ff1681526020016000820160039054906101000a900460ff1660ff1660ff1681526020016000820160049054906101000a900460ff1660ff1660ff1681526020016000820160059054906101000a900460ff1660ff1660ff1681526020016000820160069054906101000a900460ff1660ff1660ff1681526020016000820160079054906101000a900460ff1660ff1660ff1681526020016000820160089054906101000a900460ff1660ff1660ff1681526020016000820160099054906101000a900460ff1660ff1660ff16815260200160008201600a9054906101000a900460ff1660ff1660ff16815260200160008201600b9054906101000a900460ff1660ff1660ff16815260200160008201600c9054906101000a900460ff1660ff1660ff1681525050905082565b60606000805b600280549050811015610c89576001600060028381548110610c00577f4e487b7100000000000000000000000000000000000000000000000000000000600052603260045260246000fd5b9060005260206000200160009054906101000a900473ffffffffffffffffffffffffffffffffffffffff1673ffffffffffffffffffffffffffffffffffffffff1673ffffffffffffffffffffffffffffffffffffffff1681526020019081526020016000208054905082610c74919061244b565b91508080610c819061255e565b915050610bb5565b5060008167ffffffffffffffff811115610ccc577f4e487b7100000000000000000000000000000000000000000000000000000000600052604160045260246000fd5b604051908082528060200260200182016040528015610d0557816020015b610cf2611444565b815260200190600190039081610cea5790505b5090506000805b6002805490508110156112e75760006001600060028481548110610d59577f4e487b7100000000000000000000000000000000000000000000000000000000600052603260045260246000fd5b9060005260206000200160009054906101000a900473ffffffffffffffffffffffffffffffffffffffff1673ffffffffffffffffffffffffffffffffffffffff1673ffffffffffffffffffffffffffffffffffffffff168152602001908152602001600020805480602002602001604051908101604052809291908181526020016000905b8282101561121a57838290600052602060002090600e020160405180604001604052908160008201604051806101e0016040529081600082018054610e229061252c565b80601f0160208091040260200160405190810160405280929190818152602001828054610e4e9061252c565b8015610e9b5780601f10610e7057610100808354040283529160200191610e9b565b820191906000526020600020905b815481529060010190602001808311610e7e57829003601f168201915b50505050508152602001600182018054610eb49061252c565b80601f0160208091040260200160405190810160405280929190818152602001828054610ee09061252c565b8015610f2d5780601f10610f0257610100808354040283529160200191610f2d565b820191906000526020600020905b815481529060010190602001808311610f1057829003601f168201915b50505050508152602001600282018054610f469061252c565b80601f0160208091040260200160405190810160405280929190818152602001828054610f729061252c565b8015610fbf5780601f10610f9457610100808354040283529160200191610fbf565b820191906000526020600020905b815481529060010190602001808311610fa257829003601f168201915b5050505050815260200160038201548152602001600482015481526020016005820154815260200160068201548152602001600782015481526020016008820154815260200160098201548152602001600a8201548152602001600b8201548152602001600c820160009054906101000a900460ff1660ff1660ff168152602001600c820160019054906101000a900460ff1660ff1660ff168152602001600c820160029054906101000a900460ff1660ff1660ff16815250508152602001600d8201604051806101a00160405290816000820160009054906101000a900460ff1660ff1660ff1681526020016000820160019054906101000a900460ff1660ff1660ff1681526020016000820160029054906101000a900460ff1660ff1660ff1681526020016000820160039054906101000a900460ff1660ff1660ff1681526020016000820160049054906101000a900460ff1660ff1660ff1681526020016000820160059054906101000a900460ff1660ff1660ff1681526020016000820160069054906101000a900460ff1660ff1660ff1681526020016000820160079054906101000a900460ff1660ff1660ff1681526020016000820160089054906101000a900460ff1660ff1660ff1681526020016000820160099054906101000a900460ff1660ff1660ff16815260200160008201600a9054906101000a900460ff1660ff1660ff16815260200160008201600b9054906101000a900460ff1660ff1660ff16815260200160008201600c9054906101000a900460ff1660ff1660ff16815250508152505081526020019060010190610dde565b50505050905060005b81518110156112d257818181518110611265577f4e487b7100000000000000000000000000000000000000000000000000000000600052603260045260246000fd5b60200260200101518585815181106112a6577f4e487b7100000000000000000000000000000000000000000000000000000000600052603260045260246000fd5b602002602001018190525083806112bc9061255e565b94505080806112ca9061255e565b915050611223565b505080806112df9061255e565b915050610d0c565b5081935050505090565b600080546112fe9061252c565b80601f016020809104026020016040519081016040528092919081815260200182805461132a9061252c565b80156113775780601f1061134c57610100808354040283529160200191611377565b820191906000526020600020905b81548152906001019060200180831161135a57829003601f168201915b505050505081565b6002818154811061138f57600080fd5b906000526020600020016000915054906101000a900473ffffffffffffffffffffffffffffffffffffffff1681565b8280546113ca9061252c565b90600052602060002090601f0160209004810192826113ec5760008555611433565b82601f1061140557805160ff1916838001178555611433565b82800160010185558215611433579182015b82811115611432578251825591602001919060010190611417565b5b509050611440919061146a565b5090565b6040518060400160405280611457611487565b8152602001611464611506565b81525090565b5b8082111561148357600081600090555060010161146b565b5090565b604051806101e00160405280606081526020016060815260200160608152602001600081526020016000815260200160008152602001600081526020016000815260200160008152602001600081526020016000815260200160008152602001600060ff168152602001600060ff168152602001600060ff1681525090565b604051806101a00160405280600060ff168152602001600060ff168152602001600060ff168152602001600060ff168152602001600060ff168152602001600060ff168152602001600060ff168152602001600060ff168152602001600060ff168152602001600060ff168152602001600060ff168152602001600060ff168152602001600060ff1681525090565b60006115a86115a3846123b5565b612384565b9050828152602081018484840111156115c057600080fd5b6115cb8482856124ea565b509392505050565b6000813590506115e281612645565b92915050565b600082601f8301126115f957600080fd5b8135611609848260208601611595565b91505092915050565b60006101a0828403121561162557600080fd5b6116306101a0612384565b9050600061164084828501611903565b600083015250602061165484828501611903565b602083015250604061166884828501611903565b604083015250606061167c84828501611903565b606083015250608061169084828501611903565b60808301525060a06116a484828501611903565b60a08301525060c06116b884828501611903565b60c08301525060e06116cc84828501611903565b60e0830152506101006116e184828501611903565b610100830152506101206116f784828501611903565b6101208301525061014061170d84828501611903565b6101408301525061016061172384828501611903565b6101608301525061018061173984828501611903565b6101808301525092915050565b60006101e0828403121561175957600080fd5b6117646101e0612384565b9050600082013567ffffffffffffffff81111561178057600080fd5b61178c848285016115e8565b600083015250602082013567ffffffffffffffff8111156117ac57600080fd5b6117b8848285016115e8565b602083015250604082013567ffffffffffffffff8111156117d857600080fd5b6117e4848285016115e8565b60408301525060606117f8848285016118ee565b606083015250608061180c848285016118ee565b60808301525060a0611820848285016118ee565b60a08301525060c0611834848285016118ee565b60c08301525060e0611848848285016118ee565b60e08301525061010061185d848285016118ee565b61010083015250610120611873848285016118ee565b61012083015250610140611889848285016118ee565b6101408301525061016061189f848285016118ee565b610160830152506101806118b584828501611903565b610180830152506101a06118cb84828501611903565b6101a0830152506101c06118e184828501611903565b6101c08301525092915050565b6000813590506118fd8161265c565b92915050565b60008135905061191281612673565b92915050565b6000806040838503121561192b57600080fd5b6000611939858286016115d3565b925050602061194a858286016118ee565b9150509250929050565b60006020828403121561196657600080fd5b600082013567ffffffffffffffff81111561198057600080fd5b61198c848285016115e8565b91505092915050565b6000806101c083850312156119a957600080fd5b600083013567ffffffffffffffff8111156119c357600080fd5b6119cf85828601611746565b92505060206119e085828601611612565b9150509250929050565b6000602082840312156119fc57600080fd5b6000611a0a848285016118ee565b91505092915050565b6000611a1f83836121a1565b905092915050565b611a30816124a1565b82525050565b6000611a41826123f5565b611a4b8185612418565b935083602082028501611a5d856123e5565b8060005b85811015611a995784840389528151611a7a8582611a13565b9450611a858361240b565b925060208a01995050600181019050611a61565b50829750879550505050505092915050565b6000611ab682612400565b611ac08185612429565b9350611ad08185602086016124f9565b611ad981612634565b840191505092915050565b6000611aef82612400565b611af9818561243a565b9350611b098185602086016124f9565b611b1281612634565b840191505092915050565b6000611b2a60178361243a565b91507f54687265617420747970652069732072657175697265640000000000000000006000830152602082019050919050565b6000611b6a601f8361243a565b91507f4475726174696f6e206d7573742062652067726561746572207468616e2030006000830152602082019050919050565b6000611baa60238361243a565b91507f4f726967696e616c206279746573206d757374206265206e6f6e2d6e6567617460008301527f69766500000000000000000000000000000000000000000000000000000000006020830152604082019050919050565b6000611c1060158361243a565b91507f44657669636520494420697320726571756972656400000000000000000000006000830152602082019050919050565b6000611c5060238361243a565b91507f526573706f6e7365206279746573206d757374206265206e6f6e2d6e6567617460008301527f69766500000000000000000000000000000000000000000000000000000000006020830152604082019050919050565b6000611cb660158361243a565b91507f54696d657374616d7020697320726571756972656400000000000000000000006000830152602082019050919050565b6101a082016000820151611d0060008501826121ee565b506020820151611d1360208501826121ee565b506040820151611d2660408501826121ee565b506060820151611d3960608501826121ee565b506080820151611d4c60808501826121ee565b5060a0820151611d5f60a08501826121ee565b5060c0820151611d7260c08501826121ee565b5060e0820151611d8560e08501826121ee565b50610100820151611d9a6101008501826121ee565b50610120820151611daf6101208501826121ee565b50610140820151611dc46101408501826121ee565b50610160820151611dd96101608501826121ee565b50610180820151611dee6101808501826121ee565b50505050565b6101a082016000820151611e0b60008501826121ee565b506020820151611e1e60208501826121ee565b506040820151611e3160408501826121ee565b506060820151611e4460608501826121ee565b506080820151611e5760808501826121ee565b5060a0820151611e6a60a08501826121ee565b5060c0820151611e7d60c08501826121ee565b5060e0820151611e9060e08501826121ee565b50610100820151611ea56101008501826121ee565b50610120820151611eba6101208501826121ee565b50610140820151611ecf6101408501826121ee565b50610160820151611ee46101608501826121ee565b50610180820151611ef96101808501826121ee565b50505050565b60006101e0830160008301518482036000860152611f1d8282611aab565b91505060208301518482036020860152611f378282611aab565b91505060408301518482036040860152611f518282611aab565b9150506060830151611f6660608601826121df565b506080830151611f7960808601826121df565b5060a0830151611f8c60a08601826121df565b5060c0830151611f9f60c08601826121df565b5060e0830151611fb260e08601826121df565b50610100830151611fc76101008601826121df565b50610120830151611fdc6101208601826121df565b50610140830151611ff16101408601826121df565b506101608301516120066101608601826121df565b5061018083015161201b6101808601826121ee565b506101a08301516120306101a08601826121ee565b506101c08301516120456101c08601826121ee565b508091505092915050565b60006101e083016000830151848203600086015261206e8282611aab565b915050602083015184820360208601526120888282611aab565b915050604083015184820360408601526120a28282611aab565b91505060608301516120b760608601826121df565b5060808301516120ca60808601826121df565b5060a08301516120dd60a08601826121df565b5060c08301516120f060c08601826121df565b5060e083015161210360e08601826121df565b506101008301516121186101008601826121df565b5061012083015161212d6101208601826121df565b506101408301516121426101408601826121df565b506101608301516121576101608601826121df565b5061018083015161216c6101808601826121ee565b506101a08301516121816101a08601826121ee565b506101c08301516121966101c08601826121ee565b508091505092915050565b60006101c08301600083015184820360008601526121bf8282611eff565b91505060208301516121d46020860182611ce9565b508091505092915050565b6121e8816124d3565b82525050565b6121f7816124dd565b82525050565b60006020820190506122126000830184611a27565b92915050565b600060208201905081810360008301526122328184611a36565b905092915050565b600060208201905081810360008301526122548184611ae4565b905092915050565b600060408201905081810360008301526122768185611ae4565b9050818103602083015261228a8184611ae4565b90509392505050565b600060208201905081810360008301526122ac81611b1d565b9050919050565b600060208201905081810360008301526122cc81611b5d565b9050919050565b600060208201905081810360008301526122ec81611b9d565b9050919050565b6000602082019050818103600083015261230c81611c03565b9050919050565b6000602082019050818103600083015261232c81611c43565b9050919050565b6000602082019050818103600083015261234c81611ca9565b9050919050565b60006101c082019050818103600083015261236e8185612050565b905061237d6020830184611df4565b9392505050565b6000604051905081810181811067ffffffffffffffff821117156123ab576123aa612605565b5b8060405250919050565b600067ffffffffffffffff8211156123d0576123cf612605565b5b601f19601f8301169050602081019050919050565b6000819050602082019050919050565b600081519050919050565b600081519050919050565b6000602082019050919050565b600082825260208201905092915050565b600082825260208201905092915050565b600082825260208201905092915050565b6000612456826124d3565b9150612461836124d3565b9250827fffffffffffffffffffffffffffffffffffffffffffffffffffffffffffffffff03821115612496576124956125a7565b5b828201905092915050565b60006124ac826124b3565b9050919050565b600073ffffffffffffffffffffffffffffffffffffffff82169050919050565b6000819050919050565b600060ff82169050919050565b82818337600083830152505050565b60005b838110156125175780820151818401526020810190506124fc565b83811115612526576000848401525b50505050565b6000600282049050600182168061254457607f821691505b60208210811415612558576125576125d6565b5b50919050565b6000612569826124d3565b91507fffffffffffffffffffffffffffffffffffffffffffffffffffffffffffffffff82141561259c5761259b6125a7565b5b600182019050919050565b7f4e487b7100000000000000000000000000000000000000000000000000000000600052601160045260246000fd5b7f4e487b7100000000000000000000000000000000000000000000000000000000600052602260045260246000fd5b7f4e487b7100000000000000000000000000000000000000000000000000000000600052604160045260246000fd5b6000601f19601f8301169050919050565b61264e816124a1565b811461265957600080fd5b50565b612665816124d3565b811461267057600080fd5b50565b61267c816124dd565b811461268757600080fd5b5056fea26469706673582212201d280d5548265e98b288762db978effb3d4f7090f1a99ceb859f8a36d2566b7764736f6c63430008000033",
  "immutableReferences": {},
  "source": "// SPDX-License-Identifier: MIT\r\npragma solidity ^0.8.0;\r\n\r\ncontract MyContract {\r\n    string public message;\r\n\r\n    constructor(string memory _message) {\r\n        message = _message;\r\n    }\r\n\r\n    function setMessage(string memory _message) public {\r\n        message = _message;\r\n    }\r\n\r\n    struct ConnState {\r\n        uint8 OTH;\r\n        uint8 REJ;\r\n        uint8 RSTO;\r\n        uint8 RSTOS0;\r\n        uint8 RSTR;\r\n        uint8 RSTRH;\r\n        uint8 S0;\r\n        uint8 S1;\r\n        uint8 S2;\r\n        uint8 S3;\r\n        uint8 SF;\r\n        uint8 SH;\r\n        uint8 SHR;\r\n    }\r\n\r\n    struct ThreatData {\r\n        string device_id;\r\n        string threat_type;\r\n        string timestamp;\r\n        uint256 duration;\r\n        uint256 orig_bytes;\r\n        uint256 resp_bytes;\r\n        uint256 missed_bytes;\r\n        uint256 orig_h_encoded;\r\n        uint256 orig_pkts;\r\n        uint256 orig_ip_bytes;\r\n        uint256 resp_pkts;\r\n        uint256 resp_ip_bytes;\r\n        uint8 proto_icmp;\r\n        uint8 proto_tcp;\r\n        uint8 proto_udp;\r\n    }\r\n\r\n    struct Threat {\r\n        ThreatData data;\r\n        ConnState conn_state;\r\n    }\r\n    mapping(address => Threat[]) public threats;\r\n    address[] public allDevices;\r\n\r\n    event ThreatRecorded(address indexed device, string threat_type, string timestamp);\r\n\r\n    function recordThreat(\r\n        ThreatData memory _data,\r\n        ConnState memory _conn_state\r\n\r\n    ) public {\r\n         require(bytes(_data.device_id).length > 0, \"Device ID is required\");\r\n        require(bytes(_data.threat_type).length > 0, \"Threat type is required\");\r\n        require(bytes(_data.timestamp).length > 0, \"Timestamp is required\");\r\n        require(_data.duration > 0, \"Duration must be greater than 0\");\r\n        require(_data.orig_bytes >= 0, \"Original bytes must be non-negative\");\r\n        require(_data.resp_bytes >= 0, \"Response bytes must be non-negative\");\r\n        \r\n        if (threats[msg.sender].length == 0) {\r\n            allDevices.push(msg.sender);\r\n        }\r\n        \r\n        Threat memory newThreat = Threat({\r\n            data: _data,\r\n            conn_state: _conn_state\r\n        });\r\n\r\n        threats[msg.sender].push(newThreat);\r\n\r\n        emit ThreatRecorded(msg.sender, _data.threat_type, _data.timestamp);\r\n    }\r\n\r\n    \r\n    function getAllThreats() public view returns (Threat[] memory) {\r\n        uint256 totalThreatsCount = 0;\r\n\r\n        for (uint256 i = 0; i < allDevices.length; i++) {\r\n            totalThreatsCount += threats[allDevices[i]].length;\r\n        }\r\n\r\n        Threat[] memory allThreats = new Threat[](totalThreatsCount);\r\n        uint256 index = 0;\r\n\r\n        for (uint256 i = 0; i < allDevices.length; i++) {\r\n            Threat[] memory deviceThreats = threats[allDevices[i]];\r\n\r\n            for (uint256 j = 0; j < deviceThreats.length; j++) {\r\n                allThreats[index] = deviceThreats[j];\r\n                index++;\r\n            }\r\n        }\r\n\r\n        return allThreats;\r\n    }\r\n}\r\n",
  "sourcePath": "C:\\Users\\tbart\\Downloads\\OneDrive_1_14.12.2023\\tpdia\\TruffleProject\\contracts\\MyContract.sol",
  "compiler": {
    "name": "solc",
    "version": "0.8.0+commit.c7dfd78e.Emscripten.clang"
  },
  "schemaVersion": "3.4.16",
  "updatedAt": "2024-08-27T13:08:28.464Z",
  "networkType": "ethereum",
  "devdoc": {
    "kind": "dev",
    "methods": {},
    "version": 1
  },
  "userdoc": {
    "kind": "user",
    "methods": {},
    "version": 1
  }
}