{
  "contractName": "MyContract",
  "abi": [
    {
      "inputs": [
        {
          "internalType": "string",
          "name": "_message",
          "type": "string"
        }
      ],
      "stateMutability": "nonpayable",
      "type": "constructor"
    },
    {
      "anonymous": false,
      "inputs": [
        {
          "indexed": true,
          "internalType": "address",
          "name": "device",
          "type": "address"
        },
        {
          "indexed": false,
          "internalType": "string",
          "name": "threat_type",
          "type": "string"
        },
        {
          "indexed": false,
          "internalType": "string",
          "name": "timestamp",
          "type": "string"
        }
      ],
      "name": "ThreatRecorded",
      "type": "event"
    },
    {
      "inputs": [],
      "name": "message",
      "outputs": [
        {
          "internalType": "string",
          "name": "",
          "type": "string"
        }
      ],
      "stateMutability": "view",
      "type": "function",
      "constant": true
    },
    {
      "inputs": [
        {
          "internalType": "address",
          "name": "",
          "type": "address"
        },
        {
          "internalType": "uint256",
          "name": "",
          "type": "uint256"
        }
      ],
      "name": "threats",
      "outputs": [
        {
          "internalType": "string",
          "name": "device_id",
          "type": "string"
        },
        {
          "internalType": "string",
          "name": "threat_type",
          "type": "string"
        },
        {
          "internalType": "string",
          "name": "timestamp",
          "type": "string"
        },
        {
          "internalType": "uint256",
          "name": "duration",
          "type": "uint256"
        },
        {
          "internalType": "uint256",
          "name": "orig_bytes",
          "type": "uint256"
        },
        {
          "internalType": "uint256",
          "name": "resp_bytes",
          "type": "uint256"
        },
        {
          "components": [
            {
              "internalType": "uint8",
              "name": "OTH",
              "type": "uint8"
            },
            {
              "internalType": "uint8",
              "name": "REJ",
              "type": "uint8"
            },
            {
              "internalType": "uint8",
              "name": "RSTO",
              "type": "uint8"
            },
            {
              "internalType": "uint8",
              "name": "RSTOS0",
              "type": "uint8"
            },
            {
              "internalType": "uint8",
              "name": "RSTR",
              "type": "uint8"
            },
            {
              "internalType": "uint8",
              "name": "RSTRH",
              "type": "uint8"
            },
            {
              "internalType": "uint8",
              "name": "S0",
              "type": "uint8"
            },
            {
              "internalType": "uint8",
              "name": "S1",
              "type": "uint8"
            },
            {
              "internalType": "uint8",
              "name": "S2",
              "type": "uint8"
            },
            {
              "internalType": "uint8",
              "name": "S3",
              "type": "uint8"
            },
            {
              "internalType": "uint8",
              "name": "SF",
              "type": "uint8"
            },
            {
              "internalType": "uint8",
              "name": "SH",
              "type": "uint8"
            },
            {
              "internalType": "uint8",
              "name": "SHR",
              "type": "uint8"
            }
          ],
          "internalType": "struct MyContract.ConnState",
          "name": "conn_state",
          "type": "tuple"
        }
      ],
      "stateMutability": "view",
      "type": "function",
      "constant": true
    },
    {
      "inputs": [
        {
          "internalType": "string",
          "name": "_message",
          "type": "string"
        }
      ],
      "name": "setMessage",
      "outputs": [],
      "stateMutability": "nonpayable",
      "type": "function"
    },
    {
      "inputs": [
        {
          "internalType": "string",
          "name": "_device_id",
          "type": "string"
        },
        {
          "internalType": "string",
          "name": "_threat_type",
          "type": "string"
        },
        {
          "internalType": "string",
          "name": "_timestamp",
          "type": "string"
        },
        {
          "internalType": "uint256",
          "name": "_duration",
          "type": "uint256"
        },
        {
          "internalType": "uint256",
          "name": "_orig_bytes",
          "type": "uint256"
        },
        {
          "internalType": "uint256",
          "name": "_resp_bytes",
          "type": "uint256"
        },
        {
          "components": [
            {
              "internalType": "uint8",
              "name": "OTH",
              "type": "uint8"
            },
            {
              "internalType": "uint8",
              "name": "REJ",
              "type": "uint8"
            },
            {
              "internalType": "uint8",
              "name": "RSTO",
              "type": "uint8"
            },
            {
              "internalType": "uint8",
              "name": "RSTOS0",
              "type": "uint8"
            },
            {
              "internalType": "uint8",
              "name": "RSTR",
              "type": "uint8"
            },
            {
              "internalType": "uint8",
              "name": "RSTRH",
              "type": "uint8"
            },
            {
              "internalType": "uint8",
              "name": "S0",
              "type": "uint8"
            },
            {
              "internalType": "uint8",
              "name": "S1",
              "type": "uint8"
            },
            {
              "internalType": "uint8",
              "name": "S2",
              "type": "uint8"
            },
            {
              "internalType": "uint8",
              "name": "S3",
              "type": "uint8"
            },
            {
              "internalType": "uint8",
              "name": "SF",
              "type": "uint8"
            },
            {
              "internalType": "uint8",
              "name": "SH",
              "type": "uint8"
            },
            {
              "internalType": "uint8",
              "name": "SHR",
              "type": "uint8"
            }
          ],
          "internalType": "struct MyContract.ConnState",
          "name": "_conn_state",
          "type": "tuple"
        }
      ],
      "name": "recordThreat",
      "outputs": [],
      "stateMutability": "nonpayable",
      "type": "function"
    },
    {
      "inputs": [
        {
          "internalType": "address",
          "name": "_device",
          "type": "address"
        }
      ],
      "name": "getThreats",
      "outputs": [
        {
          "components": [
            {
              "internalType": "string",
              "name": "device_id",
              "type": "string"
            },
            {
              "internalType": "string",
              "name": "threat_type",
              "type": "string"
            },
            {
              "internalType": "string",
              "name": "timestamp",
              "type": "string"
            },
            {
              "internalType": "uint256",
              "name": "duration",
              "type": "uint256"
            },
            {
              "internalType": "uint256",
              "name": "orig_bytes",
              "type": "uint256"
            },
            {
              "internalType": "uint256",
              "name": "resp_bytes",
              "type": "uint256"
            },
            {
              "components": [
                {
                  "internalType": "uint8",
                  "name": "OTH",
                  "type": "uint8"
                },
                {
                  "internalType": "uint8",
                  "name": "REJ",
                  "type": "uint8"
                },
                {
                  "internalType": "uint8",
                  "name": "RSTO",
                  "type": "uint8"
                },
                {
                  "internalType": "uint8",
                  "name": "RSTOS0",
                  "type": "uint8"
                },
                {
                  "internalType": "uint8",
                  "name": "RSTR",
                  "type": "uint8"
                },
                {
                  "internalType": "uint8",
                  "name": "RSTRH",
                  "type": "uint8"
                },
                {
                  "internalType": "uint8",
                  "name": "S0",
                  "type": "uint8"
                },
                {
                  "internalType": "uint8",
                  "name": "S1",
                  "type": "uint8"
                },
                {
                  "internalType": "uint8",
                  "name": "S2",
                  "type": "uint8"
                },
                {
                  "internalType": "uint8",
                  "name": "S3",
                  "type": "uint8"
                },
                {
                  "internalType": "uint8",
                  "name": "SF",
                  "type": "uint8"
                },
                {
                  "internalType": "uint8",
                  "name": "SH",
                  "type": "uint8"
                },
                {
                  "internalType": "uint8",
                  "name": "SHR",
                  "type": "uint8"
                }
              ],
              "internalType": "struct MyContract.ConnState",
              "name": "conn_state",
              "type": "tuple"
            }
          ],
          "internalType": "struct MyContract.Threat[]",
          "name": "",
          "type": "tuple[]"
        }
      ],
      "stateMutability": "view",
      "type": "function",
      "constant": true
    }
  ],
  "bytecode": "0x60806040523480156200001157600080fd5b5060405162001eed38038062001eed833981810160405281019062000037919062000179565b80600090805190602001906200004f92919062000057565b5050620002ef565b82805462000065906200025b565b90600052602060002090601f016020900481019282620000895760008555620000d5565b82601f10620000a457805160ff1916838001178555620000d5565b82800160010185558215620000d5579182015b82811115620000d4578251825591602001919060010190620000b7565b5b509050620000e49190620000e8565b5090565b5b8082111562000103576000816000905550600101620000e9565b5090565b60006200011e6200011884620001f2565b620001be565b9050828152602081018484840111156200013757600080fd5b6200014484828562000225565b509392505050565b600082601f8301126200015e57600080fd5b81516200017084826020860162000107565b91505092915050565b6000602082840312156200018c57600080fd5b600082015167ffffffffffffffff811115620001a757600080fd5b620001b5848285016200014c565b91505092915050565b6000604051905081810181811067ffffffffffffffff82111715620001e857620001e7620002c0565b5b8060405250919050565b600067ffffffffffffffff82111562000210576200020f620002c0565b5b601f19601f8301169050602081019050919050565b60005b838110156200024557808201518184015260208101905062000228565b8381111562000255576000848401525b50505050565b600060028204905060018216806200027457607f821691505b602082108114156200028b576200028a62000291565b5b50919050565b7f4e487b7100000000000000000000000000000000000000000000000000000000600052602260045260246000fd5b7f4e487b7100000000000000000000000000000000000000000000000000000000600052604160045260246000fd5b611bee80620002ff6000396000f3fe608060405234801561001057600080fd5b50600436106100575760003560e01c806333d065971461005c578063368b87721461008c5780637bd64895146100a8578063b5d36183146100de578063e21f37ce146100fa575b600080fd5b6100766004803603810190610071919061107e565b610118565b60405161008391906117c0565b60405180910390f35b6100a660048036038101906100a191906110e3565b610518565b005b6100c260048036038101906100bd91906110a7565b610532565b6040516100d5979695949392919061183b565b60405180910390f35b6100f860048036038101906100f39190611124565b6108ad565b005b610102610d72565b60405161010f91906117e2565b60405180910390f35b6060600160008373ffffffffffffffffffffffffffffffffffffffff1673ffffffffffffffffffffffffffffffffffffffff168152602001908152602001600020805480602002602001604051908101604052809291908181526020016000905b8282101561050d57838290600052602060002090600702016040518060e00160405290816000820180546101ac90611ad2565b80601f01602080910402602001604051908101604052809291908181526020018280546101d890611ad2565b80156102255780601f106101fa57610100808354040283529160200191610225565b820191906000526020600020905b81548152906001019060200180831161020857829003601f168201915b5050505050815260200160018201805461023e90611ad2565b80601f016020809104026020016040519081016040528092919081815260200182805461026a90611ad2565b80156102b75780601f1061028c576101008083540402835291602001916102b7565b820191906000526020600020905b81548152906001019060200180831161029a57829003601f168201915b505050505081526020016002820180546102d090611ad2565b80601f01602080910402602001604051908101604052809291908181526020018280546102fc90611ad2565b80156103495780601f1061031e57610100808354040283529160200191610349565b820191906000526020600020905b81548152906001019060200180831161032c57829003601f168201915b5050505050815260200160038201548152602001600482015481526020016005820154815260200160068201604051806101a00160405290816000820160009054906101000a900460ff1660ff1660ff1681526020016000820160019054906101000a900460ff1660ff1660ff1681526020016000820160029054906101000a900460ff1660ff1660ff1681526020016000820160039054906101000a900460ff1660ff1660ff1681526020016000820160049054906101000a900460ff1660ff1660ff1681526020016000820160059054906101000a900460ff1660ff1660ff1681526020016000820160069054906101000a900460ff1660ff1660ff1681526020016000820160079054906101000a900460ff1660ff1660ff1681526020016000820160089054906101000a900460ff1660ff1660ff1681526020016000820160099054906101000a900460ff1660ff1660ff16815260200160008201600a9054906101000a900460ff1660ff1660ff16815260200160008201600b9054906101000a900460ff1660ff1660ff16815260200160008201600c9054906101000a900460ff1660ff1660ff16815250508152505081526020019060010190610179565b505050509050919050565b806000908051906020019061052e929190610e00565b5050565b6001602052816000526040600020818154811061054e57600080fd5b90600052602060002090600702016000915091505080600001805461057290611ad2565b80601f016020809104026020016040519081016040528092919081815260200182805461059e90611ad2565b80156105eb5780601f106105c0576101008083540402835291602001916105eb565b820191906000526020600020905b8154815290600101906020018083116105ce57829003601f168201915b50505050509080600101805461060090611ad2565b80601f016020809104026020016040519081016040528092919081815260200182805461062c90611ad2565b80156106795780601f1061064e57610100808354040283529160200191610679565b820191906000526020600020905b81548152906001019060200180831161065c57829003601f168201915b50505050509080600201805461068e90611ad2565b80601f01602080910402602001604051908101604052809291908181526020018280546106ba90611ad2565b80156107075780601f106106dc57610100808354040283529160200191610707565b820191906000526020600020905b8154815290600101906020018083116106ea57829003601f168201915b50505050509080600301549080600401549080600501549080600601604051806101a00160405290816000820160009054906101000a900460ff1660ff1660ff1681526020016000820160019054906101000a900460ff1660ff1660ff1681526020016000820160029054906101000a900460ff1660ff1660ff1681526020016000820160039054906101000a900460ff1660ff1660ff1681526020016000820160049054906101000a900460ff1660ff1660ff1681526020016000820160059054906101000a900460ff1660ff1660ff1681526020016000820160069054906101000a900460ff1660ff1660ff1681526020016000820160079054906101000a900460ff1660ff1660ff1681526020016000820160089054906101000a900460ff1660ff1660ff1681526020016000820160099054906101000a900460ff1660ff1660ff16815260200160008201600a9054906101000a900460ff1660ff1660ff16815260200160008201600b9054906101000a900460ff1660ff1660ff16815260200160008201600c9054906101000a900460ff1660ff1660ff1681525050905087565b60008751116108f1576040517f08c379a00000000000000000000000000000000000000000000000000000000081526004016108e890611920565b60405180910390fd5b6000865111610935576040517f08c379a000000000000000000000000000000000000000000000000000000000815260040161092c906118c0565b60405180910390fd5b6000855111610979576040517f08c379a000000000000000000000000000000000000000000000000000000000815260040161097090611960565b60405180910390fd5b600084116109bc576040517f08c379a00000000000000000000000000000000000000000000000000000000081526004016109b3906118e0565b60405180910390fd5b6000831015610a00576040517f08c379a00000000000000000000000000000000000000000000000000000000081526004016109f790611900565b60405180910390fd5b6000821015610a44576040517f08c379a0000000000000000000000000000000000000000000000000000000008152600401610a3b90611940565b60405180910390fd5b60006040518060e00160405280898152602001888152602001878152602001868152602001858152602001848152602001838152509050600160003373ffffffffffffffffffffffffffffffffffffffff1673ffffffffffffffffffffffffffffffffffffffff1681526020019081526020016000208190806001815401808255809150506001900390600052602060002090600702016000909190919091506000820151816000019080519060200190610b00929190610e00565b506020820151816001019080519060200190610b1d929190610e00565b506040820151816002019080519060200190610b3a929190610e00565b50606082015181600301556080820151816004015560a0820151816005015560c08201518160060160008201518160000160006101000a81548160ff021916908360ff16021790555060208201518160000160016101000a81548160ff021916908360ff16021790555060408201518160000160026101000a81548160ff021916908360ff16021790555060608201518160000160036101000a81548160ff021916908360ff16021790555060808201518160000160046101000a81548160ff021916908360ff16021790555060a08201518160000160056101000a81548160ff021916908360ff16021790555060c08201518160000160066101000a81548160ff021916908360ff16021790555060e08201518160000160076101000a81548160ff021916908360ff1602179055506101008201518160000160086101000a81548160ff021916908360ff1602179055506101208201518160000160096101000a81548160ff021916908360ff16021790555061014082015181600001600a6101000a81548160ff021916908360ff16021790555061016082015181600001600b6101000a81548160ff021916908360ff16021790555061018082015181600001600c6101000a81548160ff021916908360ff160217905550505050503373ffffffffffffffffffffffffffffffffffffffff167f431f8c0480b4f06676e3b337c08130bffb77cec826b8cd17c96138bf2971791d8888604051610d60929190611804565b60405180910390a25050505050505050565b60008054610d7f90611ad2565b80601f0160208091040260200160405190810160405280929190818152602001828054610dab90611ad2565b8015610df85780601f10610dcd57610100808354040283529160200191610df8565b820191906000526020600020905b815481529060010190602001808311610ddb57829003601f168201915b505050505081565b828054610e0c90611ad2565b90600052602060002090601f016020900481019282610e2e5760008555610e75565b82601f10610e4757805160ff1916838001178555610e75565b82800160010185558215610e75579182015b82811115610e74578251825591602001919060010190610e59565b5b509050610e829190610e86565b5090565b5b80821115610e9f576000816000905550600101610e87565b5090565b6000610eb6610eb1846119b1565b611980565b905082815260208101848484011115610ece57600080fd5b610ed9848285611a90565b509392505050565b600081359050610ef081611b73565b92915050565b600082601f830112610f0757600080fd5b8135610f17848260208601610ea3565b91505092915050565b60006101a08284031215610f3357600080fd5b610f3e6101a0611980565b90506000610f4e84828501611069565b6000830152506020610f6284828501611069565b6020830152506040610f7684828501611069565b6040830152506060610f8a84828501611069565b6060830152506080610f9e84828501611069565b60808301525060a0610fb284828501611069565b60a08301525060c0610fc684828501611069565b60c08301525060e0610fda84828501611069565b60e083015250610100610fef84828501611069565b6101008301525061012061100584828501611069565b6101208301525061014061101b84828501611069565b6101408301525061016061103184828501611069565b6101608301525061018061104784828501611069565b6101808301525092915050565b60008135905061106381611b8a565b92915050565b60008135905061107881611ba1565b92915050565b60006020828403121561109057600080fd5b600061109e84828501610ee1565b91505092915050565b600080604083850312156110ba57600080fd5b60006110c885828601610ee1565b92505060206110d985828601611054565b9150509250929050565b6000602082840312156110f557600080fd5b600082013567ffffffffffffffff81111561110f57600080fd5b61111b84828501610ef6565b91505092915050565b6000806000806000806000610260888a03121561114057600080fd5b600088013567ffffffffffffffff81111561115a57600080fd5b6111668a828b01610ef6565b975050602088013567ffffffffffffffff81111561118357600080fd5b61118f8a828b01610ef6565b965050604088013567ffffffffffffffff8111156111ac57600080fd5b6111b88a828b01610ef6565b95505060606111c98a828b01611054565b94505060806111da8a828b01611054565b93505060a06111eb8a828b01611054565b92505060c06111fc8a828b01610f20565b91505092959891949750929550565b600061121783836116e8565b905092915050565b600061122a826119f1565b6112348185611a14565b935083602082028501611246856119e1565b8060005b858110156112825784840389528151611263858261120b565b945061126e83611a07565b925060208a0199505060018101905061124a565b50829750879550505050505092915050565b600061129f826119fc565b6112a98185611a25565b93506112b9818560208601611a9f565b6112c281611b62565b840191505092915050565b60006112d8826119fc565b6112e28185611a36565b93506112f2818560208601611a9f565b6112fb81611b62565b840191505092915050565b6000611313601783611a36565b91507f54687265617420747970652069732072657175697265640000000000000000006000830152602082019050919050565b6000611353601f83611a36565b91507f4475726174696f6e206d7573742062652067726561746572207468616e2030006000830152602082019050919050565b6000611393602383611a36565b91507f4f726967696e616c206279746573206d757374206265206e6f6e2d6e6567617460008301527f69766500000000000000000000000000000000000000000000000000000000006020830152604082019050919050565b60006113f9601583611a36565b91507f44657669636520494420697320726571756972656400000000000000000000006000830152602082019050919050565b6000611439602383611a36565b91507f526573706f6e7365206279746573206d757374206265206e6f6e2d6e6567617460008301527f69766500000000000000000000000000000000000000000000000000000000006020830152604082019050919050565b600061149f601583611a36565b91507f54696d657374616d7020697320726571756972656400000000000000000000006000830152602082019050919050565b6101a0820160008201516114e960008501826117b1565b5060208201516114fc60208501826117b1565b50604082015161150f60408501826117b1565b50606082015161152260608501826117b1565b50608082015161153560808501826117b1565b5060a082015161154860a08501826117b1565b5060c082015161155b60c08501826117b1565b5060e082015161156e60e08501826117b1565b506101008201516115836101008501826117b1565b506101208201516115986101208501826117b1565b506101408201516115ad6101408501826117b1565b506101608201516115c26101608501826117b1565b506101808201516115d76101808501826117b1565b50505050565b6101a0820160008201516115f460008501826117b1565b50602082015161160760208501826117b1565b50604082015161161a60408501826117b1565b50606082015161162d60608501826117b1565b50608082015161164060808501826117b1565b5060a082015161165360a08501826117b1565b5060c082015161166660c08501826117b1565b5060e082015161167960e08501826117b1565b5061010082015161168e6101008501826117b1565b506101208201516116a36101208501826117b1565b506101408201516116b86101408501826117b1565b506101608201516116cd6101608501826117b1565b506101808201516116e26101808501826117b1565b50505050565b60006102608301600083015184820360008601526117068282611294565b915050602083015184820360208601526117208282611294565b9150506040830151848203604086015261173a8282611294565b915050606083015161174f6060860182611793565b5060808301516117626080860182611793565b5060a083015161177560a0860182611793565b5060c083015161178860c08601826114d2565b508091505092915050565b61179c81611a79565b82525050565b6117ab81611a79565b82525050565b6117ba81611a83565b82525050565b600060208201905081810360008301526117da818461121f565b905092915050565b600060208201905081810360008301526117fc81846112cd565b905092915050565b6000604082019050818103600083015261181e81856112cd565b9050818103602083015261183281846112cd565b90509392505050565b6000610260820190508181036000830152611856818a6112cd565b9050818103602083015261186a81896112cd565b9050818103604083015261187e81886112cd565b905061188d60608301876117a2565b61189a60808301866117a2565b6118a760a08301856117a2565b6118b460c08301846115dd565b98975050505050505050565b600060208201905081810360008301526118d981611306565b9050919050565b600060208201905081810360008301526118f981611346565b9050919050565b6000602082019050818103600083015261191981611386565b9050919050565b60006020820190508181036000830152611939816113ec565b9050919050565b600060208201905081810360008301526119598161142c565b9050919050565b6000602082019050818103600083015261197981611492565b9050919050565b6000604051905081810181811067ffffffffffffffff821117156119a7576119a6611b33565b5b8060405250919050565b600067ffffffffffffffff8211156119cc576119cb611b33565b5b601f19601f8301169050602081019050919050565b6000819050602082019050919050565b600081519050919050565b600081519050919050565b6000602082019050919050565b600082825260208201905092915050565b600082825260208201905092915050565b600082825260208201905092915050565b6000611a5282611a59565b9050919050565b600073ffffffffffffffffffffffffffffffffffffffff82169050919050565b6000819050919050565b600060ff82169050919050565b82818337600083830152505050565b60005b83811015611abd578082015181840152602081019050611aa2565b83811115611acc576000848401525b50505050565b60006002820490506001821680611aea57607f821691505b60208210811415611afe57611afd611b04565b5b50919050565b7f4e487b7100000000000000000000000000000000000000000000000000000000600052602260045260246000fd5b7f4e487b7100000000000000000000000000000000000000000000000000000000600052604160045260246000fd5b6000601f19601f8301169050919050565b611b7c81611a47565b8114611b8757600080fd5b50565b611b9381611a79565b8114611b9e57600080fd5b50565b611baa81611a83565b8114611bb557600080fd5b5056fea2646970667358221220c9912c16bbce9b803a0d4c4a308329ab055a3eeafd8b5da8b18cf63c4d024f6064736f6c63430008000033",
  "immutableReferences": {},
  "source": "// SPDX-License-Identifier: MIT\r\npragma solidity ^0.8.0;\r\n\r\ncontract MyContract {\r\n    string public message;\r\n\r\n    constructor(string memory _message) {\r\n        message = _message;\r\n    }\r\n\r\n    function setMessage(string memory _message) public {\r\n        message = _message;\r\n    }\r\n\r\n    struct ConnState {\r\n        uint8 OTH;\r\n        uint8 REJ;\r\n        uint8 RSTO;\r\n        uint8 RSTOS0;\r\n        uint8 RSTR;\r\n        uint8 RSTRH;\r\n        uint8 S0;\r\n        uint8 S1;\r\n        uint8 S2;\r\n        uint8 S3;\r\n        uint8 SF;\r\n        uint8 SH;\r\n        uint8 SHR;\r\n    }\r\n\r\n    struct Threat {\r\n        string device_id;\r\n        string threat_type;\r\n        string timestamp;\r\n        uint256 duration;\r\n        uint256 orig_bytes;\r\n        uint256 resp_bytes;\r\n        ConnState conn_state;\r\n    }\r\n\r\n    mapping(address => Threat[]) public threats;\r\n\r\n    event ThreatRecorded(address indexed device, string threat_type, string timestamp);\r\n\r\n    function recordThreat(\r\n        string memory _device_id,\r\n        string memory _threat_type,\r\n        string memory _timestamp,\r\n        uint256 _duration,\r\n        uint256 _orig_bytes,\r\n        uint256 _resp_bytes,\r\n        ConnState memory _conn_state\r\n    ) public {\r\n        require(bytes(_device_id).length > 0, \"Device ID is required\");\r\n        require(bytes(_threat_type).length > 0, \"Threat type is required\");\r\n        require(bytes(_timestamp).length > 0, \"Timestamp is required\");\r\n        require(_duration > 0, \"Duration must be greater than 0\");\r\n        require(_orig_bytes >= 0, \"Original bytes must be non-negative\");\r\n        require(_resp_bytes >= 0, \"Response bytes must be non-negative\");\r\n\r\n        Threat memory newThreat = Threat({\r\n            device_id: _device_id,\r\n            threat_type: _threat_type,\r\n            timestamp: _timestamp,\r\n            duration: _duration,\r\n            orig_bytes: _orig_bytes,\r\n            resp_bytes: _resp_bytes,\r\n            conn_state: _conn_state\r\n        });\r\n\r\n        threats[msg.sender].push(newThreat);\r\n\r\n        emit ThreatRecorded(msg.sender, _threat_type, _timestamp);\r\n    }\r\n\r\n    function getThreats(address _device) public view returns (Threat[] memory) {\r\n        return threats[_device];\r\n    }\r\n}\r\n",
  "sourcePath": "C:\\Users\\tbart\\Downloads\\OneDrive_1_14.12.2023\\tpdia\\TruffleProject\\contracts\\MyContract.sol",
  "compiler": {
    "name": "solc",
    "version": "0.8.0+commit.c7dfd78e.Emscripten.clang"
  },
  "schemaVersion": "3.4.16",
  "updatedAt": "2024-08-24T17:38:02.211Z",
  "networkType": "ethereum",
  "devdoc": {
    "kind": "dev",
    "methods": {},
    "version": 1
  },
  "userdoc": {
    "kind": "user",
    "methods": {},
    "version": 1
  }
}